:1000000002008AE5836003E49322A882E622E58366
:100010006004E4938003A882E6F822E5836004E4A8
:10002000938003A882E6F922E5836004E4938003C9
:10003000A882E6FA22E5836004E4938003A882E6BE
:10004000FB22E5836004E4938003A882E6FC22E5BA
:10005000836004E4938003A882E6FD22E5836004C4
:10006000E4938003A882E6FE22E5836004E49380A3
:1000700003A882E6FF22E4F5D075812678207A066F
:0D008000F608DAFC12011102000002007601
:100100003132333435363738394142434445464736
:100110000002059175240175250075803875808071
:1001200075A00175A0007520FF7521FFE4F522F58B
:100130002375B0FEE590240270108000E523B40121
:1001400007E522B400028002800480008029E4F5E3
:1001500020F521752200752301E5212525F582E58D
:10016000203524F583120003F58075A00375A002E5
:100170008000E590B4FFFBE590240370108000E55B
:1001800023B40207E522B4000280028004800080CC
:100190002A752000752104752200752302E52125AA
:1001A00025F582E5203524F583120003F58075A03E
:1001B0000375A0028000E590B4FFFBE59024057074
:1001C000108000E523B40307E522B400028002801A
:1001D000048000802A75200075210875220075238F
:1001E00003E5212525F582E5203524F5831200035A
:1001F000F58075A00375A0028000E590B4FFFBE5D3
:1002000090240970108000E523B40407E522B400AF
:1002100002800280048000802A75200075210C7500
:100220002200752304E5212525F582E5203524F5F6
:1002300083120003F58075A00375A0028000E5908D
:10024000B4FFFB75B0FDE590240270108000E5233B
:10025000B40507E522B40002800280048000802AF1
:10026000752000752101752200752305E5212525DE
:10027000F582E5203524F583120003F58075A0038F
:1002800075A0028000E590B4FFFBE5902403701098
:100290008000E523B40607E522B400028002800452
:1002A0008000802A752000752105752200752306BF
:1002B000E5212525F582E5203524F583120003F597
:1002C0008075A00375A0028000E590B4FFFBE59067
:1002D000240570108000E523B40707E522B400026E
:1002E000800280048000802A752000752109752213
:1002F00000752307E5212525F582E5203524F583C2
:10030000120003F58075A00375A0028000E590B48B
:10031000FFFBE590240970108000E523B40807E591
:1003200022B40002800280048000802A75200075BB
:10033000210D752200752308E5212525F582E5208C
:100340003524F583120003F58075A00375A00280A3
:1003500000E590B4FFFB75B0FBE5902402701080BF
:1003600000E523B40907E522B4000280028004807E
:1003700000802A752000752102752200752307E58B
:10038000212525F582E5203524F583120003F5802B
:1003900075A00375A0028000E590B4FFFBE59024F2
:1003A0000370108000E523B40A07E522B400028040
:1003B0000280048000802A752000752106752200C5
:1003C000752308E5212525F582E5203524F58312DE
:1003D0000003F58075A00375A0028000E590B4FFCE
:1003E000FBE590240570108000E523B40B07E5229F
:1003F000B40002800280048000802A7520007521EC
:100400000A752200752309E5212525F582E52035A9
:1004100024F583120003F58075A00375A002800007
:10042000E590B4FFFBE590240970108000E523B44B
:100430000C07E522B40002800280048000802A7547
:10044000200075210E75220075230AE5212525F56A
:1004500082E5203524F583120003F58075A003752D
:10046000A0028000E590B4FFFB75B0F7E590240290
:1004700070108000E523B40B07E522B4000280026F
:1004800080048000802A7520007521037522007584
:10049000230BE5212525F582E5203524F58312007F
:1004A00003F58075A00375A0028000E590B4FFFB02
:1004B000E590240370108000E523B40C07E522B416
:1004C0000002800280048000802A752000752107C8
:1004D00075220075230CE5212525F582E5203524BC
:1004E000F583120003F58075A00375A0028000E576
:1004F00090B4FFFBE590240570108000E523B40C58
:1005000007E522B40002800280048000802A752062
:100510000075210B75220075230DE5212525F58237
:10052000E5203524F583120003F58075A00375A03E
:10053000028000E590B4FFFBE59024097010800074
:10054000E523B40E07E522B4000280028004800097
:10055000802A75200075210F75220075230EE52174
:100560002525F582E5203524F583120003F58075F5
:10057000A00375A0028000E590B4FFFBE5212525CE
:10058000F582E5203524F583120003F5800201266B
:04059000220201142E
:00000001FF
